:040000008EEF3EF051
:107C7A00026E02505DEC3EF0ACB21200FDD7086E07
:107C8A0007C001F0026A0850B9EC3EF01200016E1A
:0E7C9A00FA0E00F0E82EFDD7012EFAD71200E8
:107CA9003132334134353642373839432A30234467
:107CB9002C016EACAC03D0AC9028B2AC8001C0AD45
:107CC900FF1200026E000E036E04D0050E4CEC3E4E
:107CD900F0032A0350025CD8A01200F7D7026E0005
:107CE9000E036E04D0010E4CEC3EF0032A03500241
:107CF9005CD8A01200F7D7F00E956EF18E1F0E0713
:107D09006E275044EC3EF0EDEC3EF0010E73EC3E74
:107D1900F0FAD7286AA90EF66E7C0EF76E000EF8F7
:107D29006E00EE17F010EE11F00900F5CFEEFFE549
:107D390050E150FAE1000180EF3EF0056E0550D8A0
:107D4900B411D00A0E66EC3EF00550D8B40BD00A37
:107D59000E66EC3EF00550D8B405D004503DEC3E1B
:107D6900F0010E01D0000E1200066E000EAC6E007E
:107D79000EAB6E06B0AC8806A202D0AC8CAB8C06FA
:107D8900B4AC8E06A602D0AB8801D0AB8A06B8ACDB
:107D9900849E9806BAAB8606AC02D09D8A01D09D16
:107DA9009A9E9A06AE02D09D8801D09D9801C0AFD7
:107DB900FF02C003F003C004F0056A0450B06EACC2
:107DC9008AAB8E949C948EACB8ACBE01D0948C12C4
:107DD90000F00E936EF00E816E81CF16F0F00E1644
:107DE900161650F00AD8A4F6D7640E66EC3EF0F0E9
:107DF9000E816E8150F00B166EF00E16161650F0AD
:107E09000AD8B4F5D7070E816E000E066E81AE81D1
:107E1900B602D0010E066E17C004F00650A2EC3E61
:107E2900F00009D8A4E7D0000E076E81AC81B60234
:107E3900D0010E076E18C004F00750A2EC3EF00006
:107E490009D8A4D8D0000E086E81AA81B602D00143
:107E59000E086E19C004F00850A2EC3EF00009D8D3
:107E6900A4C9D0000E096E81A881B602D0010E09FD
:107E79006E1AC004F00950A2EC3EF00009D8A4BA69
:107E8900D00B0E816E000E0A6E81AE81B402D00154
:107E99000E0A6E1BC004F00A50A2EC3EF00009D88D
:107EA900A4A9D0000E0B6E81AC81B402D0010E0BD7
:107EB9006E1CC004F00B50A2EC3EF00009D8A49A45
:107EC900D0000E0C6E81AA81B402D0010E0C6E1D79
:107ED900C004F00C50A2EC3EF00009D8A48BD000ED
:107EE9000E0D6E81A881B402D0010E0D6E1EC00464
:107EF900F00D50A2EC3EF00009D8A47CD00D0E8103
:107F09006E000E0E6E81AE81B202D0010E0E6E1F92
:107F1900C004F00E50A2EC3EF00009D8A46BD000CA
:107F29000E0F6E81AC81B202D0010E0F6E20C0041B
:107F3900F00F50A2EC3EF00009D8A45CD0000E105E
:107F49006E81AA81B202D0010E106E21C004F01018
:107F590050A2EC3EF00009D8A44DD0000E116E815C
:107F6900A881B202D0010E116E22C004F01150A2F4
:107F7900EC3EF00009D8A43ED00E0E816E000E1220
:107F89006E81AE81B002D0010E126E23C004F012D0
:107F990050A2EC3EF00009D8A42DD0000E136E813A
:107FA900AC81B002D0010E136E24C004F01350A2AC
:107FB900EC3EF00009D8A41ED0000E146E81AA81EF
:107FC900B002D0010E146E25C004F01450A2EC3E8C
:107FD900F00009D8A40FD0000E156E81A881B00257
:107FE900D0010E156E26C004F01550A2EC3EF0002B
:087FF90009D8B408D71200FFFB
:020000040020DA
:08000000FFFFFFFFFFFFFFFF00
:020000040030CA
:0E000000040C191EFF8081FF0FC00FE00F409F
:00000001FF
