:020000040000FA
:0600000061EF04F01200A4
:0A0006000200F7080000600000008F
:1000100010000000F60800007B0000000100000056
:10002000D9CFE6FFE1CFD9FFFE0EDB5018E00A0E74
:10003000E66E68EC02F0E552FE0EDB5010E00A0EB0
:10004000E66E68EC02F0E552FE0EDB5008E0FD0EB5
:10005000DBCFE6FFD2EC01F0E552010E02D0000E3C
:1000600000D0E552E7CFD9FF1200D9CFE6FFE1CFAC
:10007000D9FFE652F00E956E0F0E836E8350DF6E41
:10008000000EDF90DF92DF94DF96DF50F5E10F0E78
:10009000836E8350DF6E000EDF90DF92DF94DF9679
:1000A000DF50F5E0080E836E60C0E6FF8350800BE2
:1000B00003E08350080B02E1000E01D0010EE66E52
:1000C000AFDFE552E552000902E021D138D061C02E
:1000D000E6FF8350400B03E08350080B02E1000E63
:1000E00001D0010EE66E9CDFE552E552000902E008
:1000F0000ED125D062C0E6FF8350200B03E0835071
:10010000080B02E1000E01D0010EE66E89DFE55218
:10011000E552000902E0FBD012D063C0E6FF835035
:10012000100B03E08350080B02E1000E01D0010E1A
:10013000E66E76DFE552E552000901E0E8D0040EF4
:10014000836E64C0E6FF8350800B03E08350040B92
:1001500002E1000E01D0010EE66E62DFE552E552CB
:10016000000902E0D4D038D065C0E6FF8350400BD0
:1001700003E08350040B02E1000E01D0010EE66E95
:100180004FDFE552E552000902E0C1D025D066C03C
:10019000E6FF8350200B03E08350040B02E1000EC6
:1001A00001D0010EE66E3CDFE552E552000902E0A7
:1001B000AED012D067C0E6FF8350100B03E083502F
:1001C000040B02E1000E01D0010EE66E29DFE552BC
:1001D000E552000901E09BD0020E836E68C0E6FF85
:1001E0008350800B03E08350020B02E1000E01D02C
:1001F000010EE66E15DFE552E552000902E087D0F8
:1002000038D069C0E6FF8350400B03E08350020BF7
:1002100002E1000E01D0010EE66E02DFE552E5526A
:10022000000902E074D025D06AC0E6FF8350200B9D
:1002300003E08350020B02E1000E01D0010EE66ED6
:10024000EFDEE552E552000902E061D012D06BC04A
:10025000E6FF8350100B03E08350020B02E1000E17
:1002600001D0010EE66EDCDEE552E552000901E048
:100270004ED0010E836E6CC0E6FF8350800B03E00E
:100280008350010B02E1000E01D0010EE66EC8DEC4
:10029000E552E552000902E03AD038D06DC0E6FFE1
:1002A0008350400B03E08350010B02E1000E01D0AC
:1002B000010EE66EB5DEE552E552000902E027D0F8
:1002C00025D06EC0E6FF8350200B03E08350010B66
:1002D00002E1000E01D0010EE66EA2DEE552E5520B
:1002E000000902E014D012D06FC0E6FF8350100B5B
:1002F00003E08350010B02E1000E01D0010EE66E17
:100300008FDEE552E552000901E001D0CBD6E5527F
:08031000E552E7CFD9FF12000E
:08031800D9CFE6FFE1CFD9FFC8
:10032000FD0EDBCFE6FFE66AFE0EDBCFE6FF47EC15
:1003300003F0E552E552E552E552E7CFD9FF12004E
:100340009EAAFED7E1EC03F000D01200D9CFE6FF61
:10035000E1CFD9FFFD0EDBCFE6FFFE0EDBCFE6FFE0
:10036000BBEC03F0E552E552ACA2FED7E552E7CF75
:10037000D9FF1200D9CFE6FFE1CFD9FF9EAAFED761
:10038000FC0EDBCFE6FFFD0EDBCFE6FFFE0EDBCF84
:10039000E6FF8CEC03F0E552E552E552E552E7CF7B
:1003A000D9FF1200D9CFE6FFE1CFD9FFFE0EDBCF98
:1003B000E6FF17EC04F0E552ACA2FED7E552E7CF1A
:1003C000D9FF1200D9CFE6FFE1CFD9FF020EE12617
:1003D0000D0EE66EE7DFE5520A0EE66EE3DFE5524C
:1003E000DF6AFC0EDB50DF5C1FE29EAAFED7E1EC69
:1003F00003F0E76E010EE7CFDBFFFD0EDBCFE9FF79
:10040000FE0EDBCFEAFF010EDBCFEFFFDBCFE6FF17
:1004100017EC04F0E552ACA2FED7FD0EDB2AFE0E6F
:1004200001E3DB2ADF2ADDD7020EE15C02E2E16AAA
:10043000E552E16EE552E7CFD9FF1200D9CFE6FFD2
:10044000E1CFD9FF020EE126DF6A010EDB500D0875
:1004500023E09EAAFED7E1EC03F0E76E010EE7CFA2
:10046000DBFFDB500D0809E0FD0EDBCFE9FFFE0EE0
:10047000DBCFEAFF010EDBCFEFFF010EDBCFE6FFA4
:1004800017EC04F0E552ACA2FED7FD0EDB2AFE0EFF
:1004900001E3DB2ADF2AD9D7100EDF5C0FE0FD0E67
:1004A000DBCFE9FFFE0EDBCFEAFF200EEF6EFD0E85
:1004B000DB2AFE0E01E3DB2ADF2AEED7020EE15C27
:1004C00002E2E16AE552E16EE552E7CFD9FF1200A0
:1004D000D9CFE6FFE1CFD9FFE652DF6AFE0EDB504F
:1004E000D880DF5407E3050EE66E41EC04F0E552D8
:1004F000DF2AF4D700D0E552E552E7CFD9FF12004A
:10050000D9CFE6FFE1CFD9FFE652DF6AFE0EDB501E
:10051000D880DF5407E3010EE66E41EC04F0E552AB
:10052000DF2AF4D700D0E552E552E7CFD9FF120019
:10053000D9CFE6FFE1CFD9FF020EE126DF6AFE0E3A
:10054000DB50DF5C13E2010EDB6A0A0EF36E010E74
:10055000DBCFF4FFF350F45C07E2640EE66EB8DF25
:10056000E552010EDB2AF1D7DF2AE9D7020EE15C62
:1005700002E2E16AE552E16EE552E7CFD9FF1200EF
:10058000D9CFE6FFE1CFD9FFE652DF6A0A0EDF5C82
:1005900007E2320EE66E6FEC04F0E552DF2AF6D782
:1005A000E552E552E7CFD9FF12004B0EE66E41EC63
:1005B00004F0E55200D01200D9CFE6FFE1CFD9FF19
:1005C000E652DF6A140EDF5C07E2190EE66E41ECBC
:1005D00004F0E552DF2AF6D700D0E552E552E7CF26
:1005E000D9FF1200010EE66E00EC04F0E552120095
:1005F000060EF66E000EF76E000EF86E0001090092
:10060000F550756F0900F550766F03E1756701D0FD
:100610003DD00900F550706F0900F550716F090069
:10062000F550726F09000900F550E96E0900F550A8
:10063000EA6E090009000900F550736F0900F550D2
:10064000746F09000900F6CF77F0F7CF78F0F8CF94
:1006500079F070C0F6FF71C0F7FF72C0F8FF0001BB
:10066000735302E1745307E00900F550EE6E73070F
:10067000F8E27407F9D777C0F6FF78C0F7FF79C0C2
:0E068000F8FF00017507000E765BBFD7120071
:02068E00D9CFC2
:10069000E6FFDACFE6FFE1CFD9FFE2CFDAFFAC6ABF
:1006A000AB6AFD0EDBB0AC88DBA202D0AC8CAB8CAD
:1006B000DBB4AC8EDBA602D0AB8801D0AB8ADBB852
:1006C000AC849E98DBBAAB86DBAC02D09D8A01D0AD
:1006D0009D9A9E9ADBAE02D09D8801D09D98FB0E1C
:1006E000DB50AF6EFB0EFC0EDBCF03F003C002F05D
:1006F000036A0250B06EAC8AAB8E949C948EAC5060
:10070000100B04E0AC50800B01E1948CE552E5CF76
:08071000DAFFE7CFD9FF120068
:08071800D9CFE6FFDACFE6FFBE
:10072000E1CFD9FFE2CFDAFFE652E652DF6AFB0EF5
:10073000DB50DF5C18E29EAAFED7E1EC03F0E76E27
:10074000010EE7CFDBFFFC0EDBCFE9FFFD0EDBCFB9
:10075000EAFF010EDBCFEFFFFC0EDB2AFD0E01E30B
:10076000DB2ADF2AE4D7E552E552E552E5CFDAFF8E
:06077000E7CFD9FF1200E3
:0A077600D9CFE6FFDACFE6FFE1CFAE
:10078000D9FFE2CFDAFFACA2FED7FC0EDBCFE9FF48
:10079000FD0EDBCFEAFFEF50E66E17EC04F0E552FA
:1007A000FC0EDBCFE9FFDB2AFD0EDBCFEAFF01E326
:1007B000DB2AEF50E8E1E552E5CFDAFFE7CFD9FFDA
:0207C000120025
:0E07C200D9CFE6FFDACFE6FFE1CFD9FFE2CFD5
:1007D000DAFFE652F20E00017A17ABAC03D07A9141
:1007E000ABB07A81ABB47A85ABB27A87AE50DF6EAC
:1007F000DF50E552E552E5CFDAFFE7CFD9FF12002F
:10080000FF0EE350056EEF0E01D0F30EE76EE72EFC
:1008100007EF04F00C0E046EE76AE72E0DEF04F00C
:0E082000042E0CEF04F0052E05EF04F012007C
:02082E00D9CF20
:10083000E6FFDACFE6FFE1CFD9FFE2CFDAFFACACDB
:1008400004D0AC9000017AB3AC80FD0EDB50AD6EED
:0C085000E552E5CFDAFFE7CFD9FF120038
:04085C00F00E956E97
:100860001F0EE66E7BC0E6FF8CEC01F0E552E55210
:1008700035EC00F0010EE66E80EC02F0E552F8D7A0
:02088000120064
:0E088200FF0EE350056E480E01D04C0EE76EDF
:10089000E72EFED7E76AE72EFED7052EF7D7000032
:0208A000120044
:0E08A200000EF36E00EE00F0080E01D81200FA
:1008B000EA6002D0EE6AFCD7F350E9601200EE6AFB
:0208C000FCD763
:0E08C20013EE00F023EE00F0F86A019CF8EC53
:0E08D00002F07AEC04F02EEC04F0FBD71200DC
:0208DE00FF0E0B
:1008E000E350E84E1200000000D000D000D0E82E07
:0408F000FAD7120021
:0208F4001200F0
:0108F6002CD5
:0908F70031323341343536423709
:070900003839432A3023447B
:020000040030CA
:010001000CF2
:0100020019E4
:010003001EDE
:010005008179
:010006008079
:010008000FE8
:00000001FF
