:0400000092EF3EF04D
:107C9600086E07C001F0026A0850BDEC3EF0120003
:107CA600016EFA0E00F0E82EFDD7012EFAD712006B
:107CB7003132334134353642373839432A30234459
:107CC7002C016EACAC03D0AC9028B2AC8001C0AD37
:107CD700FF1200036E035064EC3EF0ACA2FED7AD7A
:107CE700CF02F0ADCF02F01200026E000E036E0459
:107CF700D0050E53EC3EF0032A0350025CD8A012C5
:107D070000F7D7F00E956E000E936E1F0E076E27C5
:107D1700504BEC3EF0F1EC3EF000EF00F0286AB774
:107D27000EF66E7C0EF76E000EF86E00EE17F01072
:107D3700EE11F00900F5CFEEFFE550E150FAE10052
:107D47000185EF3EF0056E0550D8B411D00A0E78C4
:107D5700EC3EF00550D8B40BD00A0E78EC3EF00597
:107D670050D8B405D004506DEC3EF0010E01D000A0
:107D77000E1200066E000EAC6E000EAB6E06B0ACB7
:107D87008806A202D0AC8CAB8C06B4AC8E06A602D9
:107D9700D0AB8801D0AB8A06B8AC849E9806BAAB44
:107DA7008606AC02D09D8A01D09D9A9E9A06AE02A5
:107DB700D09D8801D09D9801C0AFFF02C003F0039A
:107DC700C004F0056A0450B06EAC8AAB8E949C94E4
:107DD7008EACB8ACBE01D0948C1200F00E936E0F2F
:107DE7000E816E81CF16F0F00E16161666F8D76460
:107DF7000E78EC3EF00F0E816E81CF16F0F00E1666
:107E0700161650D8B4F7D7080E816E000E066E818D
:107E1700BE81A602D0010E066E17C004F00650A65A
:107E2700EC3EF00009D8A4E7D0000E076E81BC81B4
:107E3700A602D0010E076E18C004F00750A6EC3E4C
:107E4700F00009D8A4D8D0000E086E81BA81A60226
:107E5700D0010E086E19C004F00850A6EC3EF000E1
:107E670009D8A4C9D0000E096E81B881A602D00135
:107E77000E096E1AC004F00950A6EC3EF00009D8AE
:107E8700A4BAD0040E816E000E0A6E81BE81A402D0
:107E9700D0010E0A6E1BC004F00A50A6EC3EF0009B
:107EA70009D8A4A9D0000E0B6E81BC81A402D00111
:107EB7000E0B6E1CC004F00B50A6EC3EF00009D868
:107EC700A49AD0000E0C6E81BA81A402D0010E0CC8
:107ED7006E1DC004F00C50A6EC3EF00009D8A48B30
:107EE700D0000E0D6E81B881A402D0010E0D6E1E5A
:107EF700C004F00D50A6EC3EF00009D8A47CD002D7
:107F07000E816E000E0E6E81BE81A202D0010E0E92
:107F17006E1FC004F00E50A6EC3EF00009D8A46B0B
:107F2700D0000E0F6E81BC81A202D0010E0F6E2011
:107F3700C004F00F50A6EC3EF00009D8A45CD000B6
:107F47000E106E81BA81A202D0010E106E21C004FC
:107F5700F01050A6EC3EF00009D8A44DD0000E1149
:107F67006E81B881A202D0010E116E22C004F011F9
:107F770050A6EC3EF00009D8A43ED0010E816E0059
:107F87000E126E81BE81A002D0010E126E23C004B4
:107F9700F01250A6EC3EF00009D8A42DD0000E1325
:107FA7006E81BC81A002D0010E136E24C004F013B1
:107FB70050A6EC3EF00009D8A41ED0000E146E8126
:107FC700BA81A002D0010E146E25C004F01450A689
:107FD700EC3EF00009D8A40FD0000E156E81B881D1
:107FE700A002D0010E156E26C004F01550A6EC3E77
:0A7FF700F00009D8B408D71200FF0B
:020000040020DA
:08000000FFFFFFFFFFFFFFFF00
:020000040030CA
:0E000000040C191EFF8081FF0FC00FE00F409F
:00000001FF
